:0800030057656C636F6D650029
:1002C900C100100A0101010101010101010101013E
:0402D900010101011D
:10034F001203A81203821203F67BFF7A007903E4EB
:0A035F00FDFF12030812021B80FBD1
:03000B0002028866
:10028800C0E0C0F0C083C082C0D075D000C000C03C
:1002980001C002C003C004C005C006C007758CFCBD
:1002A800758A6612000ED007D006D005D004D00398
:1002B800D002D001D000D0D0D082D083D0F0D0E00E
:0102C8003203
:1003A800D2AF758901758CFC758A66D2A9D28C2268
:100396007580FFC2B5D2B6D2B4AF80C2B4EF20E743
:0103A600F660
:0103A7002233
:1003B800AE07120396C2B5C2B68E80D2B4C2B422BA
:1003C800AE07120396D2B5C2B68E80D2B4C2B4229A
:0503F6007F010203B8C5
:0503FB007F0F0203B8B2
:050400007F0C0203B8AF
:0C03D800ED60034307404307800203B8B8
:0A03E400AC031203D8AF040203C8F3
:100308008B1A8A1B891C1203D8AB1AAA1BA91C12A8
:1003180003696013051CE51C7002051B14F9120320
:0803280069FF1203C880E22204
:100382007F381203B87F0C1203B87F061203B87FBE
:04039200010203B8A9
:030405008F1D2226
:030408008F1D2223
:03040B008F1D2220
:03040E008F1D221D
:030411008F1D221A
:030414008F1D2217
:030417008F1D2214
:03041A008F1D2211
:03041D008F1D220E
:030420008F1D220B
:030423008F1D2208
:030426008F1D2205
:030429008F1D2202
:03042C008F1D22FF
:03042F008F1D22FC
:030432008F1D22F9
:1000EF00EFB41000400302018E9000FFF828287330
:1000FF0002012F02013502013B02014102014702B9
:10010F00014D02015302015902015F020165020113
:10011F006B02017102017702017D020183020189E5
:10012F00120405D20022120408D2002212040BD2AC
:10013F00002212040ED20022120411D20022120445
:10014F0014D20022120417D2002212041AD2002253
:10015F0012041DD20022120420D20022120423D234
:10016F000022120426D20022120429D200221204E5
:10017F002CD2002212042FD20022120432D20022DB
:1002DD0010320101010101010101010101010101C1
:1002ED0001010142000121001022FFFFFFFFFFFF6E
:0A02FD00FFFFFFFFFFFFFFFFFFFF01
:10021B00E4F51AC3E51A940474809480505EE4F5F7
:10022B001BC3E51B940474809480504CE51A25E0A5
:10023B0025E02432251BF8E6FFE51A25E025E0240E
:10024B000A251BF8E6FE6F602BEE600EE51A25E023
:10025B0025E0251BF542FF1200EFE51A25E025E00E
:10026B002432251BF8E6FFE51A25E025E0240A25B4
:0C027B001BF8A607051B80A9051A809738
:010287002254
:10000E00E52125E025E02422F8E625E0FFA2B4E470
:10001E00334FFFE52125E025E02422F8A607E52150
:10002E0025E025E02423F8E625E0FFA2B5E4334FD2
:10003E00FFE52125E025E02423F8A607E52125E0AC
:10004E0025E02424F8E625E0FFA2B6E4334FFFE5D1
:10005E002125E025E02424F8A607E52125E025E06A
:10006E002425F8E625E0FFA2B7E4334FFFE521256E
:10007E00E025E02425F8A607E4FFEFC3940474807E
:10008E0094805035E52125E025E024222FF8E65412
:10009E000FFD7C00700EE52125E025E024322FF8BF
:1000AE00E4F68012ED640F4C700CE52125E025E09E
:1000BE0024322FF876010F80C10521532103E5214B
:1000CE0014600F14601114601324037013D2B3C2A2
:1000DE00B022D2B0C2B122D2B1C2B222D2B2C2B317
:0100EE0022EF
:100330007F01EFD394007480948040127EE3EED36B
:0E03400094007480948040031E80F31F80E4BC
:01034E00228C
:0803EE00C2A3120330D2A322C6
:0300000002018F6B
:0C018F00787FE4F6D8FD7581420201D6AD
:10036900BB010689828A83E0225002E722BBFE0292
:09037900E32289828A83E49322C5
:10019B0002034FE493A3F8E493A34003F68001F228
:1001AB0008DFF48029E493A3F85407240CC8C33365
:1001BB00C4540F4420C8834004F456800146F6DF34
:1001CB00E4800B01020408102040809002C9E47EF9
:1001DB00019360BCA3FF543F30E509541FFEE49329
:1001EB00A360010ECF54C025E060A840B8E493A3F0
:1001FB00FAE493A3F8E493A3C8C582C8CAC583CA1B
:10020B00F0A3C8C582C8CAC583CADFE9DEE780BED2
:0103070000F5
:00000001FF
