:100055007580FFC2B5D2B6D2B4AF80C2B4EF20E787
:01006500F6A4
:010066002277
:10006700AE07120055C2B5C2B68E80D2B4C2B42252
:10007700AE07120055D2B5C2B68E80D2B4C2B42232
:05009D007F0102006775
:0500A2007F0F02006762
:0500A7007F0C02006760
:0C008700ED600343074043078002006760
:0A009300AC03120087AF04020077EF
:100000008B088A09890A120087AB08AA09A90A1273
:1000100000286013050AE50A7002050914F91200A8
:0800200028FF12007780E222A4
:100041007F381200677F0C1200677F061200677FFE
:040051000102006741
:10002800BB010689828A83E0225002E722BBFE02D6
:09003800E32289828A83E4932209
:00000001FF
