:0800030057656C636F6D650029
:1010E000C10984003DCCCCCD902E0101010101014C
:0A10F00001010101010101010101EC
:101267001212CB1212811213087BFF7A007903E462
:0A127700FDFF1211EA120FAD80FB1B
:03000B00021130AF
:10113000C0E0C0F0C083C082C0D075D000C000C085
:1011400001C002C003C004C005C006C007758CFC06
:10115000758A66120BA5D007D006D005D004D0033F
:10116000D002D001D000D0D0D082D083D0F0D0E057
:01117000324C
:1012CB00D2AF758901758CFC758A66D2A9D28C2236
:101295007580FFC2B5D2B6D2B4AF80C2B4EF20E735
:0112A500F652
:0112A6002225
:1012A700AE07121295C2B5C2B6AF068F80D2B4C2CE
:0212B700B4225F
:1012B900AE07121295D2B5C2B6AF068F80D2B4C2AC
:0212C900B4224D
:051308007F010212A7A5
:05130D007F0F0212A792
:051312007F0C0212A790
:0E12EA00ED6004EF4440FFEF4480FF0212A7C6
:0812F8001212EAAF030212B961
:1011EA00789CEBF208EAF208E9F21212EA789CE239
:1011FA00FB08E2FA08E2F912000E601A789CE2FB98
:10120A000808E2F92401F218E2FA3400F212000E98
:07121A00FF1212B980D72278
:101281007F381212A77F0C1212A77F061212A77FB6
:04129100010212A79D
:05131700789FEFF222B7
:05131C00789FEFF222B2
:05132100789FEFF222AD
:05132600789FEFF222A8
:05132B00789FEFF222A3
:05133000789FEFF2229E
:05133500789FEFF22299
:05133A00789FEFF22294
:05133F00789FEFF2228F
:05134400789FEFF2228A
:05134900789FEFF22285
:05134E00789FEFF22280
:05135300789FEFF2227B
:05135800789FEFF22276
:05135D00789FEFF22271
:05136200789FEFF2226C
:100D5000EFB410004003020DEF900D60F8282873E7
:100D6000020D90020D96020D9C020DA2020DA8022A
:100D70000DAE020DB4020DBA020DC0020DC6020D79
:100D8000CC020DD2020DD8020DDE020DE4020DEAF6
:100D9000121317D2092212131CD20922121321D2C4
:100DA0000922121326D2092212132BD2092212135E
:100DB00030D20922121335D2092212133AD2092253
:100DC00012133FD20922121344D20922121349D21C
:100DD000092212134ED20922121353D209221213DE
:100DE00058D2092212135DD20922121362D20922AB
:1010FA00904F0101010101010101010101010101F9
:10110A000101815F00813E00903FFFFFFFFFFFFF6B
:0A111A00FFFFFFFFFFFFFFFFFFFFD5
:100FAD00E4789CF2789CE2C3940474809480506B36
:100FBD00E408F2789DE2C39404748094805055E265
:100FCD00FF18E2FE25E025E0244F2FF8E2FDEE2587
:100FDD00E025E0242E2FF8E2FF6D6031EF601278EE
:100FED009CE225E025E0FF08E22FFF785FF2120D6D
:100FFD0050789DE2FF18E2FE25E025E0244F2FF802
:10100D00E2FDEE25E025E0242E2FF8EDF2789DE2AD
:0B101D0004F2809F789CE204F28089BE
:0110280022A5
:100BA500783EE2FF25E025E0243FF8E225E0FEA2BD
:100BB500B4E4334EFEEF25E025E0243FF8EEF2786D
:100BC5003EE2FF25E025E02440F8E225E0FEA2B55F
:100BD500E4334EFEEF25E025E02440F8EEF2783EC2
:100BE500E2FF25E025E02441F8E225E0FEA2B6E497
:100BF500334EFEEF25E025E02441F8EEF2783EE2A3
:100C0500FF25E025E02442F8E225E0FEA2B7E43323
:100C15004EFEEF25E025E02442F8EEF2E4FFEFC3B7
:100C25009404748094805038783EE2FE25E025E0F7
:100C3500243F2FF8E2540FFD7C00700DEE25E025D2
:100C4500E0244F2FF8E4F28014ED640F4C700E7819
:100C55003EE225E025E0244F2FF87401F20F80BE17
:100C6500783EE204F2E25403F214600F14601114AA
:100C7500601324037013D2B3C2B022D2B0C2B12222
:090C8500D2B1C2B222D2B2C2B354
:010C8E002243
:101248007F01EFD394007480948040127EE3EED344
:0E12580094007480948040031E80F31F80E495
:011266002265
:08130000C2A3121248D2A3227D
:10102900417373657274206661696C65643A205313
:101039002D3E6261736520213D4E554C4C2028663A
:10104900696C65202573206C696E65202564290A01
:10105900002E2E5C736F757263655F66696C6573CC
:101069005C706F73746669785F65787072657373A5
:0F107900696F6E2E630025630020002563200041
:100E8E007860EBF208EAF208E9F27F147E00120CA9
:100E9E008FAA06A9077B01C003C002C0017860E2D9
:100EAE00FB08E2FA08E2F91201387860E2FB08E288
:100EBE00FA08E2F9120118E94A4B7020787C74FFA7
:100ECE00F2087410F208745AF208E4F208741FF271
:100EDE007BFF7A1079291204B81200007860E2FBC9
:100EEE0008E2FA08E2F9120118C003C002C0017844
:100EFE0060E2FB08E2FA08E2F990000312021B78A6
:100F0E0060E2FB08E2FA08E2F9900006E475F014DC
:030F1E000200EBE3
:0A0A8E007870E2FB08E2FA08E2F9D2
:100A98007866EDF27863EBF208EAF208E9F2900082
:100AA80003120187AE02AF017863E2FB08E2FA089D
:100AB800E2F9120118C3EF99FFEE9AFE7863E2FBA0
:100AC80008E2FA08E2F9900006120066FDACF0C3ED
:100AD800EF9DEC6480F8EE6480985003020B891255
:100AE8000118AE02AF01ED240AFDE43CFC120DF042
:100AF800AA06A9077B01C003C002C0017863E2FB14
:100B080008E2FA08E2F91201387863E2FB08E2FA2F
:100B180008E2F9120118E94A4B7020787C74FFF258
:100B2800087410F208745AF208E4F2087430F27B80
:100B3800FF7A1079291204B81200007863E2FB08E2
:100B4800E2FA08E2F9900006120066FFAEF0120120
:100B580018E92FF9EA3EFAC003C002C0017863E23F
:100B6800FB08E2FA08E2F990000312021B7863E23C
:100B7800FB08E2FA08E2F9900006E475F00A1200B0
:100B88009E7866E2FF7863E2FB08E2FA08E2F990F1
:0D0B98000003E475F0011201B7EF020054F4
:0A1171007870E2FB08E2FA08E2F9E8
:10117B007867EBF208EAF208E9F27867E2FB08E23B
:10118B00FA08E2F9900003120187AE02AF0178670B
:10119B00E2FB08E2FA08E2F9120118C3EF99FFEE3D
:0311AB009AFE2287
:10108800786D74FEF2087400F2087478F27870E2F1
:07109800FB08E2FA08E2F98F
:10109F00786AEBF208EAF208E9F2786A121173EF54
:1010AF004E7003FEFF22786AE2FB08E2FA08E2F9CB
:1010BF0090000374FFF5F01201E912000EFF786D36
:1010CF00E2FB08E2FA08E2F9EF1200547E007F011A
:0110DF0022EE
:0A07B1007870EBF208EAF208E9F2B2
:1007BB00E47876F208F2120E8E7873E2FB08E2FA16
:1007CB0008E2F908E2FE08E2F5828E831200277038
:1007DB00030209417873E2FB08E2FA08E2F908E246
:1007EB00FE08E2F5828E83120027FF1212DB5051B6
:1007FB007873E2FB08E2FA08E2F90808E2FF240149
:10080B00F218E2FE3400F28F828E83120027787C7E
:10081B00F27BFF7A10797F1204B87873E2FB08E25F
:10082B00FA08E2F908E2FE08E2F5828E831200274D
:10083B00FF1212DB409E7BFF7A1079821204B88084
:10084B00937873E2FB08E2FA08E2F908E2FE08E2A9
:10085B00F5828E83120027FF642B6005EF642D70E9
:10086B0037121171EF4E70030208FD121088787861
:10087B00E2FDB42805120A8E800F7BFF7A10798473
:10088B007878E2787CF21204B8121171EF4E6006A0
:10089B007878E2B428D5805A7873E2FB08E2FA083C
:1008AB00E2F908E2FE08E2F5828E83120027642942
:1008BB00701C80157878E2FF6428606C7BFF7A10DF
:1008CB007984787CEFF21204B812108880E6787382
:1008DB00E2FB08E2FA08E2F908E2FE08E2F5828E92
:1008EB0083120027FF642A6009EF642F6004EFB4C2
:1008FB00281C7873E2FB08E2FA08E2F908E2FE082A
:10090B00E2F5828E83120027FD120A8E801A78730D
:10091B00E2FB08E2FA08E2F908E2FE08E2F5828E51
:10092B0083120027702B800E7877E22401F218E2F5
:10093B003400F20207C4121171EF4E6014121088CA
:10094B007BFF7A1079847878E2787CF21204B88095
:01095B00E5B6
:01095C002278
:03000000020F21CB
:0C0F2100787FE4F6D8FD758121020F688E
:10000E00BB010689828A83E0225002E722BBFE02F0
:09001E00E32289828A83E4932223
:10002700BB010CE58229F582E5833AF583E022508E
:1000370006E92582F8E622BBFE06E92582F8E222D8
:0D004700E58229F582E5833AF583E49322F2
:10005400BB010689828A83F0225002F722BBFE018B
:02006400F32285
:10006600BB0110E58229F582E5833AF583E0F5F0D8
:10007600A3E0225009E92582F886F008E622BBFEB5
:100086000AE92582F8E2F5F008E222E5832AF583FB
:08009600E993F5F0A3E99322C0
:10009E00BB010DC58229C582C5833AC58302036A99
:1000AE005011C58229F808E5F026F618F5F0E5821C
:1000BE0036F622BBFE11C58229F808E225F0F5F0CE
:1000CE00F218E23582F222F8E58229F582E5832ADA
:0D00DE00F58374019325F0F5F0E4933822CA
:1000EB00F8BB0111E58229F582E5833AF583E8F047
:1000FB00E5F0A3F0225009E92582C8F608A6F02204
:0D010B00BBFE09E92582C8F2E5F008F222EA
:10011800BB010789828A830203B25005E9F802030A
:1001280080BBFE05E9F80203F289828A830204246F
:10013800BB011A89828A83D0F0D0E0F8D0E0F9D0E8
:10014800E0FAD0E0FBE8C0E0C0F00203E95016E9AD
:10015800F8D083D082D0E0F9D0E0FAD0E0FBC082BA
:10016800C0830203A9BBFE16E9F8D083D082D0E091
:0F017800F9D0E0FAD0E0FBC082C08302041B2262
:10018700BB010DE58229F582E5833AF5830203B2C7
:100197005007E92582F8020380BBFE07E92582F8AC
:1001A7000203F2E58229F582E5833AF58302042406
:1001B700BB010DC58229C582C5833AC5830203BB2E
:1001C7005008F8E92582C8020389BBFE08F8E9252B
:1001D70082C80203FBC58229C582C5833AC583024B
:0201E7000424EE
:1001E900BB010DC58229C582C5833AC5830203D2E5
:1001F9005008F8E92582C8020399BBFE08F8E925E9
:1002090082C802040BC58229C582C5833AC5830207
:020219000424BB
:10021B00BB0120E58229F582E5833AF583D0F0D046
:10022B00E0F8D0E0F9D0E0FAD0E0FBE8C0E0C0F0B5
:10023B000203E95018E92582F8D083D082D0E0F987
:10024B00D0E0FAD0E0FBC082C0830203A9BBFE184A
:10025B00E92582F8D083D082D0E0F9D0E0FAD0E063
:09026B00FBC082C08302041B22C7
:10045600E508247CF8E20508227879300702787CE2
:10046600E475F0011203FB02000E2000EB7F2ED292
:10047600008018EF540F2490D43440D4FF30040B7E
:10048600EF24BFB41A0050032461FFE5096002158A
:1004960009050CE50C7002050B30070D7879E4753B
:1004A600F0011203FBEF0200540212217403D2077B
:1004B6008003E4C207F508787912041BE4F509F510
:1004C6000BF50CE50960077F2012049180F5750A8B
:1004D600FFC201C200C202C203C205C206C208129E
:1004E600045FFF700D3007057F001204A2AF0CAE4B
:1004F6000B22B4255FC2D5C20412045FFF24D0B418
:100506000A00501A75F00A780930D50508B6FF01B9
:1005160006C6A426F620D5047002D20380D924CFBD
:10052600B41A00EF5004C2E5D2040206A1D201803B
:10053600C6D20080C0D20280BCD2D580BAD2058095
:10054600B47F201204912002077401B5090040F11E
:10055600120456FF1204910204C9D208D2068095ED
:10056600120456FB120456FA120456F94A4B700648
:1005760079727A077BFF20022EE509602A7E008EBB
:100586008275830012002760060EEE650A70F0C2BF
:10059600D5EBC0E0EAC0E0E9C0E0EE1206E8D0E044
:1005A600F9D0E0FAD0E0FB12000EFF60AAEBC0E043
:1005B600EAC0E0E9C0E0120491D0E02401F9D0E0FD
:1005C6003400FAD0E0FBE50A0460DCD50AD980875E
:1005D6007BFF7A0679E4D202809C79108002790842
:1005E600C206C2088008D2D5790A8004790AC2D523
:1005F600E50A047002F50AE4FAFDFEFF120456FC51
:100606007B08200113120456FD7B1030000A1204E9
:1006160056FE120456FF7B20EC3382D592D550133A
:10062600C3E43000069FFFE49EFEE42001039DFD27
:10063600E49CFCE4CBF8C201EC700CCFCECDCCE848
:1006460024F8F870F38017C3EF33FFEE33FEED3373
:10065600FDEC33FCEB33FB994002FB0FD8E9EB30A2
:100666000105F8D0E0C448B201C0E00AEC4D4E4F97
:1006760078207B0070C2EAB50A0040BCC0E01206D2
:10068600EAD0F0D0E0200104C4C0E0C4B201C0F05A
:1006960012047AD0F0D5F0EB0204C91204300566D4
:1006A6005305E05805374C05334205E44F05EC4445
:1006B60005EC49054C4305F25505D64605D64505D4
:0106C600D65D
:1006C70047079250053B2D053F2E05622B05432317
:1006D700056020077B2A04FB480000055A3F3F3F7F
:1006E70000790AA2D5200314300509B910020404C1
:1006F700B9080104A2D5200602500104200268921D
:1007070002B509005034C0E07F203003197F30A2C2
:100717000272067205500F120741C202C206C205D5
:10072700C2087F30800F300503E9C0E01204913022
:100737000503D0E0F9D0E0B509CC3005177F30B913
:10074700100C1204917F583004077F788003B90892
:10075700031204913002057F2D0204917F202008A7
:10076700F87F2B2006F322920280CF286E756C6CDF
:100777002900D2011204563001F8C201780930D598
:100787000108F60204FB2D5043495812045624036E
:10079700B405004001E490078D93120482743A1265
:0A07A7000482D2037509040205E084
:0F12DB00EFC394304007EF943A50028001C322D2
:100C8F007888EEF208EFF2087400F20874A0F27898
:100C9F008AE2FE08E2F5828E83E0FEA3E0FF4E704B
:100CAF0003FEFF228F828E83A3A3E0FCA3E0FD78D7
:100CBF0088E2FA08E2FBC3ED9BEC9A5009788AEEC2
:100CCF00F208EFF280C98F828E83A3A3E0FCA3E02A
:100CDF00C39BFDEC9AFC788CF208EDF2C39410ECF8
:100CEF00940050168F828E83E0FCA3E0FD788AE299
:100CFF00FA08E2F5828A83EC803B788DE224FCF2DD
:100D0F0018E234FFF2E2FD08E28F828E83A3A3CDB7
:100D1F00F0A3EDF0EF2404FFE43EFEE22FFF18E214
:100D2F003EFE788AF208EFF27888E2FD08E28F82C1
:100D3F008E83A3A3CDF0A3EDF0EF2404FFE43EFEDA
:010D4F002281
:100DF0007890ECF208EDF2788EEEF208EFF24E60A9
:100E00000A9000A2E07002A3E07004E4FEFF2278E2
:100E10008EE2FE08E2FF7892EEF2FE08EFF224FC8A
:100E2000F2EE34FF18F27890E2FE08E2FF120C8F27
:100E30007894EEF208EFF24E7003FEFF227892E211
:100E4000FE08E2F5828E83A3A3E0FEA3E0FFD37841
:100E500091E29F18E29E4005EEF208EFF27890E2F0
:100E6000FE08E2FF788EE2FC08E2CAECCAF97B01D8
:100E70007894E2FC08E2F87D01120344788EE2FEE9
:0E0E800008E2FF12095D7894E2FE08E2FF220C
:100F2D00021267E493A3F8E493A34003F68001F261
:100F3D0008DFF48029E493A3F85407240CC8C333C5
:100F4D00C4540F4420C8834004F456800146F6DF94
:100F5D00E4800B01020408102040809010E0E47E34
:100F6D00019360BCA3FF543F30E509541FFEE49389
:100F7D00A360010ECF54C025E060A840B8E493A350
:100F8D00FAE493A3F8E493A3C8C582C8CAC583CA7B
:100F9D00F0A3C8C582C8CAC583CADFE9DEE780BE33
:0111240000CA
:10027400E709F608DFFA8046E709F208DFFA803E6C
:1002840088828C83E709F0A3DFFA8032E309F60859
:10029400DFFA8078E309F208DFFA807088828C83C1
:1002A400E309F0A3DFFA806489828A83E0A3F60875
:1002B400DFFA805889828A83E0A3F208DFFA804C4F
:1002C40080D280FA80C680D4806980F28033801026
:1002D40080A680EA809A80A880DA80E280CA80338F
:1002E40089828A83ECFAE493A3C8C582C8CCC58307
:1002F400CCF0A3C8C582C8CCC583CCDFE9DEE780D7
:100304000D89828A83E493A3F608DFF9ECFAA9F055
:10031400EDFB2289828A83ECFAE0A3C8C582C8CCAB
:10032400C583CCF0A3C8C582C8CCC583CCDFEADEC4
:10033400E880DB89828A83E493A3F208DFF980CC26
:1003440088F0EF60010E4E60C388F0ED2402B4041F
:100354000050B9F582EB2402B4040050AF232345C6
:0603640082239002C47325
:10036A00C5F0F8A3E028F0C5F0F8E582158270021E
:06037A001583E038F022BB
:09038000E6FB08E6FA08E6F922A2
:10038900FAE6FB0808E6F925F0F618E6CA3AF62275
:10039900FAE6FB0808E625F0F9F618E63AFAF62235
:0903A900EBF608EAF608E9F62279
:0903B200E0FBA3E0FAA3E0F9224C
:1003BB00F8E0FBA3A3E0F925F0F0E58215827002CB
:0703CB001583E0FA38F0226F
:1003D200F8E0FBA3A3E025F0F9F0E58215827002B4
:0703E2001583E038FAF02258
:0903E900EBF0A3EAF0A3E9F02215
:0903F200E2FB08E2FA08E2F9223C
:1003FB00FAE2FB0808E2F925F0F218E2CA3AF22217
:10040B00FAE2FB0808E225F0F9F218E23AFAF222D6
:09041B00EBF208EAF208E9F22212
:0C042400E493FB740193FA740293F92234
:10043000D083D082F8E4937012740193700DA3A35B
:1004400093F8740193F5828883E47374029368606F
:06045000EFA3A3A380DF6F
:10122100EFB40A07740D12122C740A309811A899A0
:10123100B8130CC2983098FDA899C298B811F6302D
:0712410099FDC299F5992205
:0B1125004800A00000000000000000D7
:1011AE00EF4E7008FE7F01ED1D70011C9000A0EE49
:1011BE00F0A3EFF0A3ECF0A3EDF09000A0E0FEA3FF
:1011CE00E0FFF5828E83E4F0A3F0ED24FCFDEC3419
:0C11DE00FF8F828E83A3A3F0A3EDF0220C
:10095D007896EEF208EFF24E7003020A8D9000A227
:10096D00E07002A3E07003020A8D7896E2FE08E2C1
:10097D0024FCFFEE34FFFE087400F20874A0F27838
:10098D0098E2FC08E2F5828C83E0FCA3E0FD08EC24
:10099D00F2FC08EDF24C601D7896E2FC08E2FD7861
:1009AD009AE2FA08E2FBD39DEA9C50097898EAF2A4
:1009BD0008EBF280CA789BE2700218E2604C8F82DD
:1009CD008E83A3A3E0FCA3E0FD7897E22DFD18E252
:1009DD003CFC789AE2FA08E2FB6D7002EA6C702A30
:1009ED008B828A83A3A3E0FCA3E02404FDE43C8F67
:1009FD00828E83A3A38DF012036A789AE2FC08E23B
:100A0D00F5828C83E0FDA3E08006789AE2FD08E292
:100A1D008F828E83CDF0A3EDF07898E2FC08E2FD95
:100A2D00F5828C83A3A3E0FAA3E0FBED2BFDEC3A5A
:100A3D00FCED2404FDE43CFCED6F7002EC6E7031B6
:100A4D008F828E83A3A3E0FCA3E02404FDE43CFC91
:100A5D0018E2FA08E2FBF5828A83A3A3EC8DF0126B
:100A6D00036A8F828E83E0FFA3E08B828A83CF801F
:100A7D000B7898E2FC08E2F5828C83EEF0A3EFF0A0
:010A8D002246
:00000001FF
