:0800030057656C636F6D650029
:10106700C10984003DCCCCCD902E010101010101C5
:0A1077000101010101010101010165
:1011EE001212961212081212DC7BFF7A007903E4B7
:0A11FE00FDFF121171120F3280FB89
:03000B000210B729
:1010B700C0E0C0F0C083C082C0D075D000C000C0FF
:1010C70001C002C003C004C005C006C007758CFC80
:1010D700758A66120B7AD007D006D005D004D003E4
:1010E700D002D001D000D0D0D082D083D0F0D0E0D1
:0110F70032C6
:10129600D2AFE4F589758CFC758A66D2A9D28C2208
:10121C007580FFC2B5D2B6D2B4AF80C2B4EF20E7AE
:01122C00F6CB
:01122D00229E
:10122E00AE0712121CC2B5C2B6AF068F80D2B4C2C0
:02123E00B422D8
:10124000AE0712121CD2B5C2B6AF068F80D2B4C29E
:02125000B422C6
:0512DC007F0102122E4B
:0512E1007F0F02122E38
:0512E6007F0C02122E36
:0E12B500ED6004EF4440FFEF4480FF02122E74
:0812CC001212B5AF030212403B
:10117100789CEBF208EAF208E9F21212B5789CE2E7
:10118100FB08E2FA08E2F912000E601A789CE2FB11
:101191000808E2F92401F218E2FA3400F212000E12
:0711A100FF12124080D7226B
:101208007F3812122E7F0C12122E7F0612122E7F9A
:041218000102122E8F
:1012520078A0EFF21212DC78A0E2FBE4FDFF0212AA
:01126200CCBF
:1012630078A0EFF21212DC78A0E2FBE4FDFF021299
:01127300CCAE
:1012740078A0EFF21212DC78A0E2FBE4FDFF021288
:01128400CC9D
:1012850078A0EFF21212DC78A0E2FBE4FDFF021277
:01129500CC8C
:0512EB0078A0EFF222E3
:0512F00078A0EFF222DE
:0512F50078A0EFF222D9
:0512FA0078A0EFF222D4
:0512FF0078A0EFF222CF
:0513040078A0EFF222C9
:0513090078A0EFF222C4
:05130E0078A0EFF222BF
:0513130078A0EFF222BA
:0513180078A0EFF222B5
:05131D0078A0EFF222B0
:0513220078A0EFF222AB
:100C6400789FEFF2B410004003020D46900C77F821
:100C7400282873020CA7020CB1020CBB020CC5029B
:100C84000CCF020CD9020CE3020CED020CF7020D9E
:100C940001020D0B020D15020D1F020D29020D3369
:100CA400020D3D789FE2FF121252D20922789FE290
:100CB400FF121263D20922789FE2FF121274D20942
:100CC40022789FE2FF121285D20922789FE2FF1256
:100CD40012EBD20922789FE2FF1212F0D209227895
:100CE4009FE2FF1212F5D20922789FE2FF1212FA54
:100CF400D20922789FE2FF1212FFD20922789FE2E2
:100D0400FF121304D20922789FE2FF121309D209B9
:100D140022789FE2FF12130ED20922789FE2FF127B
:100D24001313D20922789FE2FF121318D2092278F2
:100D34009FE2FF12131DD20922789FE2FF121322B1
:030D4400D20922AF
:10108100904F010101010101010101010101010172
:101091000101815F00813E00903FFFFFFFFFFFFFE5
:0A10A100FFFFFFFFFFFFFFFFFFFF4F
:100F3200E4789CF2789CE2C3940474809480506BB1
:100F4200E408F2789DE2C39404748094805055E2E0
:100F5200FF18E2FE25E025E0244F2FF8E2FDEE2502
:100F6200E025E0242E2FF8E2FF6D6031EF60127869
:100F72009CE225E025E0FF08E22FFF785FF2120CE9
:100F820064789DE2FF18E2FE25E025E0244F2FF869
:100F9200E2FDEE25E025E0242E2FF8EDF2789DE229
:0B0FA20004F2809F789CE204F280893A
:010FAD002221
:100B7A00783EE2FF25E025E0243FF8E225E0FEA2E8
:100B8A00B4E4334EFEEF25E025E0243FF8EEF27898
:100B9A003EE2FF25E025E02440F8E225E0FEA2B58A
:100BAA00E4334EFEEF25E025E02440F8EEF2783EED
:100BBA00E2FF25E025E02441F8E225E0FEA2B6E4C2
:100BCA00334EFEEF25E025E02441F8EEF2783EE2CE
:100BDA00FF25E025E02442F8E225E0FEA2B7E4334F
:100BEA004EFEEF25E025E02442F8EEF2E4FFEFC3E3
:100BFA009404748094805038783EE2FE25E025E023
:100C0A00243F2FF8E2540FFD7C00700DEE25E025FD
:100C1A00E0244F2FF8E4F28014ED640F4C700E7844
:100C2A003EE225E025E0244F2FF87401F20F80BE42
:100C3A00783EE204F2E25403F214600F14601114D5
:100C4A00601324037013D2B3C2B022D2B0C2B1224D
:090C5A00D2B1C2B222D2B2C2B37F
:010C6300226E
:1011CF007F01EFD394007480948040127EE3EED3BE
:0E11DF0094007480948040031E80F31F80E40F
:0111ED0022DF
:0812D400C2A31211CFD2A32224
:0912C300256300200025632000D2
:100FAE007860EBF208EAF208E9F27F147E00120D87
:100FBE0047AA06A9077B01C003C002C0017860E200
:100FCE00FB08E2FA08E2F91201387860E2FB08E267
:100FDE00FA08E2F9120118C003C002C0017860E2FB
:100FEE00FB08E2FA08E2F990000312021B7860E2B5
:100FFE00FB08E2FA08E2F9900006E475F01402002C
:01100E00EBF6
:0A0A8E007870E2FB08E2FA08E2F9D2
:100A98007866EDF27863EBF208EAF208E9F2900082
:100AA80003120187AE02AF017863E2FB08E2FA089D
:100AB800E2F9120118C3EF99FFEE9AFE7863E2FBA0
:100AC80008E2FA08E2F9900006120066FDACF0C3ED
:100AD800EF9DEC6480F8EE648098407A7863E2FBDE
:100AE80008E2FA08E2F9120118AE02AF01ED240A91
:100AF800FDE43CFC120E08AA06A9077B01C003C04E
:100B080002C0017863E2FB08E2FA08E2F912013850
:100B18007863E2FB08E2FA08E2F990000612006640
:100B2800FFAEF0120118E92FF9EA3EFAC003C0023D
:100B3800C0017863E2FB08E2FA08E2F990000312C8
:100B4800021B7863E2FB08E2FA08E2F9900006E487
:100B580075F00A12009E7866E2FF7863E2FB08E20D
:100B6800FA08E2F9900003E475F0011201B7EF0208
:020B7800005427
:0A10F8007870E2FB08E2FA08E2F962
:101102007867EBF208EAF208E9F27867E2FB08E2B4
:10111200FA08E2F9900003120187AE02AF01786784
:10112200E2FB08E2FA08E2F9120118C3EF99FFEEB6
:031132009AFE2200
:10100F00786D74FEF2087400F2087478F27870E26A
:07101F00FB08E2FA08E2F908
:10102600786AEBF208EAF208E9F2786A1210FAEF47
:101036004E7003FEFF22786AE2FB08E2FA08E2F944
:1010460090000374FFF5F01201E912000EFF786DAF
:10105600E2FB08E2FA08E2F9EF1200547E007F0193
:011066002267
:0A07B1007870EBF208EAF208E9F2B2
:1007BB00E47876F208F2120FAE7873E2FB08E2FAF5
:1007CB0008E2F908E2FE08E2F5828E831200277038
:1007DB00030209417873E2FB08E2FA08E2F908E246
:1007EB00FE08E2F5828E83120027FF1212A65051EB
:1007FB007873E2FB08E2FA08E2F90808E2FF240149
:10080B00F218E2FE3400F28F828E83120027787C7E
:10081B00F27BFF7A1279C31204B87873E2FB08E219
:10082B00FA08E2F908E2FE08E2F5828E831200274D
:10083B00FF1212A6409E7BFF7A1279C61204B88073
:10084B00937873E2FB08E2FA08E2F908E2FE08E2A9
:10085B00F5828E83120027FF642B6005EF642D70E9
:10086B00371210F8EF4E70030208FD12100F787854
:10087B00E2FDB42805120A8E800F7BFF7A1279C82D
:10088B007878E2787CF21204B81210F8EF4E60061A
:10089B007878E2B428D5805A7873E2FB08E2FA083C
:1008AB00E2F908E2FE08E2F5828E83120027642942
:1008BB00701C80157878E2FF6428606C7BFF7A12DD
:1008CB0079C8787CEFF21204B812100F80E67873B7
:1008DB00E2FB08E2FA08E2F908E2FE08E2F5828E92
:1008EB0083120027FF642A6009EF642F6004EFB4C2
:1008FB00281C7873E2FB08E2FA08E2F908E2FE082A
:10090B00E2F5828E83120027FD120A8E801A78730D
:10091B00E2FB08E2FA08E2F908E2FE08E2F5828E51
:10092B0083120027702B800E7877E22401F218E2F5
:10093B003400F20207C41210F8EF4E601412100FBD
:10094B007BFF7A1279C87878E2787CF21204B8804F
:01095B00E5B6
:01095C002278
:03000000020EA647
:0C0EA600787FE4F6D8FD758121020EED86
:10000E00BB010689828A83E0225002E722BBFE02F0
:09001E00E32289828A83E4932223
:10002700BB010CE58229F582E5833AF583E022508E
:1000370006E92582F8E622BBFE06E92582F8E222D8
:0D004700E58229F582E5833AF583E49322F2
:10005400BB010689828A83F0225002F722BBFE018B
:02006400F32285
:10006600BB0110E58229F582E5833AF583E0F5F0D8
:10007600A3E0225009E92582F886F008E622BBFEB5
:100086000AE92582F8E2F5F008E222E5832AF583FB
:08009600E993F5F0A3E99322C0
:10009E00BB010DC58229C582C5833AC58302036A99
:1000AE005011C58229F808E5F026F618F5F0E5821C
:1000BE0036F622BBFE11C58229F808E225F0F5F0CE
:1000CE00F218E23582F222F8E58229F582E5832ADA
:0D00DE00F58374019325F0F5F0E4933822CA
:1000EB00F8BB0111E58229F582E5833AF583E8F047
:1000FB00E5F0A3F0225009E92582C8F608A6F02204
:0D010B00BBFE09E92582C8F2E5F008F222EA
:10011800BB010789828A830203B25005E9F802030A
:1001280080BBFE05E9F80203F289828A830204246F
:10013800BB011A89828A83D0F0D0E0F8D0E0F9D0E8
:10014800E0FAD0E0FBE8C0E0C0F00203E95016E9AD
:10015800F8D083D082D0E0F9D0E0FAD0E0FBC082BA
:10016800C0830203A9BBFE16E9F8D083D082D0E091
:0F017800F9D0E0FAD0E0FBC082C08302041B2262
:10018700BB010DE58229F582E5833AF5830203B2C7
:100197005007E92582F8020380BBFE07E92582F8AC
:1001A7000203F2E58229F582E5833AF58302042406
:1001B700BB010DC58229C582C5833AC5830203BB2E
:1001C7005008F8E92582C8020389BBFE08F8E9252B
:1001D70082C80203FBC58229C582C5833AC583024B
:0201E7000424EE
:1001E900BB010DC58229C582C5833AC5830203D2E5
:1001F9005008F8E92582C8020399BBFE08F8E925E9
:1002090082C802040BC58229C582C5833AC5830207
:020219000424BB
:10021B00BB0120E58229F582E5833AF583D0F0D046
:10022B00E0F8D0E0F9D0E0FAD0E0FBE8C0E0C0F0B5
:10023B000203E95018E92582F8D083D082D0E0F987
:10024B00D0E0FAD0E0FBC082C0830203A9BBFE184A
:10025B00E92582F8D083D082D0E0F9D0E0FAD0E063
:09026B00FBC082C08302041B22C7
:10045600E508247CF8E20508227879300702787CE2
:10046600E475F0011203FB02000E2000EB7F2ED292
:10047600008018EF540F2490D43440D4FF30040B7E
:10048600EF24BFB41A0050032461FFE5096002158A
:1004960009050CE50C7002050B30070D7879E4753B
:1004A600F0011203FBEF0200540211A87403D207F5
:1004B6008003E4C207F508787912041BE4F509F510
:1004C6000BF50CE50960077F2012049180F5750A8B
:1004D600FFC201C200C202C203C205C206C208129E
:1004E600045FFF700D3007057F001204A2AF0CAE4B
:1004F6000B22B4255FC2D5C20412045FFF24D0B418
:100506000A00501A75F00A780930D50508B6FF01B9
:1005160006C6A426F620D5047002D20380D924CFBD
:10052600B41A00EF5004C2E5D2040206A1D201803B
:10053600C6D20080C0D20280BCD2D580BAD2058095
:10054600B47F201204912002077401B5090040F11E
:10055600120456FF1204910204C9D208D2068095ED
:10056600120456FB120456FA120456F94A4B700648
:1005760079727A077BFF20022EE509602A7E008EBB
:100586008275830012002760060EEE650A70F0C2BF
:10059600D5EBC0E0EAC0E0E9C0E0EE1206E8D0E044
:1005A600F9D0E0FAD0E0FB12000EFF60AAEBC0E043
:1005B600EAC0E0E9C0E0120491D0E02401F9D0E0FD
:1005C6003400FAD0E0FBE50A0460DCD50AD980875E
:1005D6007BFF7A0679E4D202809C79108002790842
:1005E600C206C2088008D2D5790A8004790AC2D523
:1005F600E50A047002F50AE4FAFDFEFF120456FC51
:100606007B08200113120456FD7B1030000A1204E9
:1006160056FE120456FF7B20EC3382D592D550133A
:10062600C3E43000069FFFE49EFEE42001039DFD27
:10063600E49CFCE4CBF8C201EC700CCFCECDCCE848
:1006460024F8F870F38017C3EF33FFEE33FEED3373
:10065600FDEC33FCEB33FB994002FB0FD8E9EB30A2
:100666000105F8D0E0C448B201C0E00AEC4D4E4F97
:1006760078207B0070C2EAB50A0040BCC0E01206D2
:10068600EAD0F0D0E0200104C4C0E0C4B201C0F05A
:1006960012047AD0F0D5F0EB0204C91204300566D4
:1006A6005305E05805374C05334205E44F05EC4445
:1006B60005EC49054C4305F25505D64605D64505D4
:0106C600D65D
:1006C70047079250053B2D053F2E05622B05432317
:1006D700056020077B2A04FB480000055A3F3F3F7F
:1006E70000790AA2D5200314300509B910020404C1
:1006F700B9080104A2D5200602500104200268921D
:1007070002B509005034C0E07F203003197F30A2C2
:100717000272067205500F120741C202C206C205D5
:10072700C2087F30800F300503E9C0E01204913022
:100737000503D0E0F9D0E0B509CC3005177F30B913
:10074700100C1204917F583004077F788003B90892
:10075700031204913002057F2D0204917F202008A7
:10076700F87F2B2006F322920280CF286E756C6CDF
:100777002900D2011204563001F8C201780930D598
:100787000108F60204FB2D5043495812045624036E
:10079700B405004001E490078D93120482743A1265
:0A07A7000482D2037509040205E084
:0F12A600EFC394304007EF943A50028001C32207
:100D47007888EEF208EFF2087400F20874A1F278DE
:100D57008AE2FE08E2F5828E83E0FEA3E0FF4E7092
:100D670003FEFF228F828E83A3A3E0FCA3E0FD781E
:100D770088E2FA08E2FBC3ED9BEC9A5009788AEE09
:100D8700F208EFF280C98F828E83A3A3E0FCA3E071
:100D9700C39BFDEC9AFC788CF208EDF2C39410EC3F
:100DA700940050168F828E83E0FCA3E0FD788AE2E0
:100DB700FA08E2F5828A83EC803B788DE224FCF224
:100DC70018E234FFF2E2FD08E28F828E83A3A3CDFF
:100DD700F0A3EDF0EF2404FFE43EFEE22FFF18E25C
:100DE7003EFE788AF208EFF27888E2FD08E28F8209
:100DF7008E83A3A3CDF0A3EDF0EF2404FFE43EFE22
:010E070022C8
:100E08007890ECF208EDF2788EEEF208EFF24E6090
:100E18000A9000A3E07002A3E07004E4FEFF2278C9
:100E28008EE2FE08E2FF7892EEF2FE08EFF224FC72
:100E3800F2EE34FF18F27890E2FE08E2FF120D4756
:100E48007894EEF208EFF24E7003FEFF227892E2F9
:100E5800FE08E2F5828E83A3A3E0FEA3E0FFD37829
:100E680091E29F18E29E4005EEF208EFF27890E2D8
:100E7800FE08E2FF788EE2FC08E2CAECCAF97B01C0
:100E88007894E2FC08E2F87D01120344788EE2FED1
:0E0E980008E2FF12095D7894E2FE08E2FF22F4
:100EB2000211EEE493A3F8E493A34003F68001F257
:100EC20008DFF48029E493A3F85407240CC8C33341
:100ED200C4540F4420C8834004F456800146F6DF10
:100EE200E4800B0102040810204080901067E47E29
:100EF200019360BCA3FF543F30E509541FFEE49305
:100F0200A360010ECF54C025E060A840B8E493A3CB
:100F1200FAE493A3F8E493A3C8C582C8CAC583CAF6
:100F2200F0A3C8C582C8CAC583CADFE9DEE780BEAE
:0110AB000044
:10027400E709F608DFFA8046E709F208DFFA803E6C
:1002840088828C83E709F0A3DFFA8032E309F60859
:10029400DFFA8078E309F208DFFA807088828C83C1
:1002A400E309F0A3DFFA806489828A83E0A3F60875
:1002B400DFFA805889828A83E0A3F208DFFA804C4F
:1002C40080D280FA80C680D4806980F28033801026
:1002D40080A680EA809A80A880DA80E280CA80338F
:1002E40089828A83ECFAE493A3C8C582C8CCC58307
:1002F400CCF0A3C8C582C8CCC583CCDFE9DEE780D7
:100304000D89828A83E493A3F608DFF9ECFAA9F055
:10031400EDFB2289828A83ECFAE0A3C8C582C8CCAB
:10032400C583CCF0A3C8C582C8CCC583CCDFEADEC4
:10033400E880DB89828A83E493A3F208DFF980CC26
:1003440088F0EF60010E4E60C388F0ED2402B4041F
:100354000050B9F582EB2402B4040050AF232345C6
:0603640082239002C47325
:10036A00C5F0F8A3E028F0C5F0F8E582158270021E
:06037A001583E038F022BB
:09038000E6FB08E6FA08E6F922A2
:10038900FAE6FB0808E6F925F0F618E6CA3AF62275
:10039900FAE6FB0808E625F0F9F618E63AFAF62235
:0903A900EBF608EAF608E9F62279
:0903B200E0FBA3E0FAA3E0F9224C
:1003BB00F8E0FBA3A3E0F925F0F0E58215827002CB
:0703CB001583E0FA38F0226F
:1003D200F8E0FBA3A3E025F0F9F0E58215827002B4
:0703E2001583E038FAF02258
:0903E900EBF0A3EAF0A3E9F02215
:0903F200E2FB08E2FA08E2F9223C
:1003FB00FAE2FB0808E2F925F0F218E2CA3AF22217
:10040B00FAE2FB0808E225F0F9F218E23AFAF222D6
:09041B00EBF208EAF208E9F22212
:0C042400E493FB740193FA740293F92234
:10043000D083D082F8E4937012740193700DA3A35B
:1004400093F8740193F5828883E47374029368606F
:06045000EFA3A3A380DF6F
:1011A800EFB40A07740D1211B3740A309811A89994
:1011B800B8130CC2983098FDA899C298B811F630A7
:0711C80099FDC299F599227F
:0B10AC004800A1000000000000000050
:10113500EF4E7008FE7F01ED1D70011C9000A1EEC1
:10114500F0A3EFF0A3ECF0A3EDF09000A1E0FEA377
:10115500E0FFF5828E83E4F0A3F0ED24FCFDEC3492
:0C116500FF8F828E83A3A3F0A3EDF02285
:10095D007896EEF208EFF24E7003020A8D9000A326
:10096D00E07002A3E07003020A8D7896E2FE08E2C1
:10097D0024FCFFEE34FFFE087400F20874A1F27837
:10098D0098E2FC08E2F5828C83E0FCA3E0FD08EC24
:10099D00F2FC08EDF24C601D7896E2FC08E2FD7861
:1009AD009AE2FA08E2FBD39DEA9C50097898EAF2A4
:1009BD0008EBF280CA789BE2700218E2604C8F82DD
:1009CD008E83A3A3E0FCA3E0FD7897E22DFD18E252
:1009DD003CFC789AE2FA08E2FB6D7002EA6C702A30
:1009ED008B828A83A3A3E0FCA3E02404FDE43C8F67
:1009FD00828E83A3A38DF012036A789AE2FC08E23B
:100A0D00F5828C83E0FDA3E08006789AE2FD08E292
:100A1D008F828E83CDF0A3EDF07898E2FC08E2FD95
:100A2D00F5828C83A3A3E0FAA3E0FBED2BFDEC3A5A
:100A3D00FCED2404FDE43CFCED6F7002EC6E7031B6
:100A4D008F828E83A3A3E0FCA3E02404FDE43CFC91
:100A5D0018E2FA08E2FBF5828A83A3A3EC8DF0126B
:100A6D00036A8F828E83E0FFA3E08B828A83CF801F
:100A7D000B7898E2FC08E2F5828C83EEF0A3EFF0A0
:010A8D002246
:00000001FF
