:0800030057656C636F6D650029
:100F7900C10910460101010101010101010101013C
:040F89000101010160
:1011150012115512112F1211B27BFF7A007903E4D7
:0A112500FDFF121080120F0C80FB7A
:03000B00020FC31E
:100FC300C0E0C0F0C083C082C0D075D000C000C0F4
:100FD30001C002C003C004C005C006C007758CFC75
:100FE300758A66120A28D007D006D005D004D0032C
:100FF300D002D001D000D0D0D082D083D0F0D0E0C6
:0110030032BA
:10115500D2AF758901758CFC758A66D2A9D28C22AD
:101143007580FFC2B5D2B6D2B4AF80C2B4EF20E788
:01115300F6A5
:011154002278
:10116500AE07121143C2B5C2B68E80D2B4C2B42244
:10117500AE07121143D2B5C2B68E80D2B4C2B42224
:0511B2007F0102116540
:0511B7007F0F0211652D
:0511BC007F0C0211652B
:0C119400ED600343074043078002116533
:0A11A000AC03121194AF04021175A4
:101080008B758A768977121194AB75AA76A9771237
:10109000000E60130577E5777002057614F91200EB
:0810A0000EFF12117580E2221F
:10112F007F381211657F0C1211657F061211657FD2
:04113F000102116533
:0311C1008F782202
:0311C4008F7822FF
:0311C7008F7822FC
:0311CA008F7822F9
:0311CD008F7822F6
:0311D0008F7822F3
:0311D3008F7822F0
:0311D6008F7822ED
:0311D9008F7822EA
:0311DC008F7822E7
:0311DF008F7822E4
:0311E2008F7822E1
:0311E5008F7822DE
:0311E8008F7822DB
:0311EB008F7822D8
:0311EE008F7822D5
:100BE700EFB410004003020C86900BF7F828287327
:100BF700020C27020C2D020C33020C39020C3F02A7
:100C07000C45020C4B020C51020C57020C5D020CF6
:100C170063020C69020C6F020C75020C7B020C81DB
:100C27001211C1D209221211C4D209221211C7D23C
:100C370009221211CAD209221211CDD20922121188
:100C4700D0D209221211D3D209221211D6D20922E7
:100C57001211D9D209221211DCD209221211DFD2C4
:100C670009221211E2D209221211E5D20922121128
:100C7700E8D209221211EBD209221211EED209226F
:100F8D001033010101010101010101010101010103
:100F9D0001010143000122001023FFFFFFFFFFFFAE
:0A0FAD00FFFFFFFFFFFFFFFFFFFF44
:100F0C00E4F575C3E575940474809480505EE4F543
:100F1C0076C3E576940474809480504CE57525E096
:100F2C0025E024332576F8E6FFE57525E025E02459
:100F3C00462576F8E6FE6F602BEE600EE57525E033
:100F4C0025E02576F543FF120BE7E57525E025E056
:100F5C0024332576F8E6FFE57525E025E0244625C3
:0C0F6C0076F8A607057680A90575809729
:010F78002256
:100A2800E52225E025E02423F8E625E0FFA2B4E44A
:100A3800334FFFE52225E025E02423F8A607E52229
:100A480025E025E02424F8E625E0FFA2B5E4334FAD
:100A5800FFE52225E025E02424F8A607E52225E085
:100A680025E02425F8E625E0FFA2B6E4334FFFE5AC
:100A78002225E025E02425F8A607E52225E025E043
:100A88002426F8E625E0FFA2B7E4334FFFE5222548
:100A9800E025E02426F8A607E4FFEFC39404748059
:100AA80094805035E52225E025E024232FF8E654EC
:100AB8000FFD7C00700EE52225E025E024332FF899
:100AC800E4F68012ED640F4C700CE52225E025E079
:100AD80024332FF876010F80C10522532203E52223
:100AE80014600F14601114601324037013D2B3C27E
:100AF800B022D2B0C2B122D2B1C2B222D2B2C2B3F3
:010B080022CA
:1010F6007F01EFD394007480948040127EE3EED398
:0E11060094007480948040031E80F31F80E4E8
:0111140022B8
:0811AA00C2A31210F6D2A32229
:100E9C00417373657274206661696C65643A2053A2
:100EAC002D3E6261736520213D4E554C4C202866C9
:100EBC00696C65202573206C696E65202564290A90
:100ECC00002E2E5C736F757263655F66696C65735B
:100EDC005C706F73746669785F6578707265737334
:100EEC00696F6E2E63002563002000256320000AC5
:100EFC00CAE4C8EBB8F1CABDB4EDCEF3A3A10A00A5
:100E27008B798A7A897B7F147E00120C87AA06A9A0
:100E3700077B01C003C002C001AB79AA7AA97B1264
:100E47000138AB79AA7AA97B120118E94A4B701AC3
:100E5700750BFF750C0E750DCDF50E750F1B7BFF12
:100E67007A0E799C1204B8120000AB79AA7AA97B92
:100E7700120118C003C002C001AB79AA7AA97B90FE
:100E8700000312021BAB79AA7AA97B900006E475CE
:050E9700F0140200EB65
:100B09008D1F8B1C8A1D891E900003120187AE025E
:100B1900AF01AB1CAA1DA91E120118C3EF99FFEE64
:100B29009AFEAB1CAA1DA91E900006120066FDAC18
:100B3900F0C3EF9DEC6480F8EE6480985003020BDB
:100B4900D2120118AE02AF01ED240AFDE43CFC12F9
:100B59000DAFAA06A9077B01C003C002C001AB1CE7
:100B6900AA1DA91E120138AB1CAA1DA91E12011823
:100B7900E94A4B701A750BFF750C0E750DCDF50E04
:100B8900750F2C7BFF7A0E799C1204B8120000AB0A
:100B99001CAA1DA91E900006120066FFAEF01201E4
:100BA90018E92FF9EA3EFAC003C002C001AB1CAA3A
:100BB9001DA91E90000312021BAB1CAA1DA91E90A1
:100BC9000006E475F00A12009EAB1CAA1DA91E902E
:0E0BD9000003E475F0011201B7E51F0200549D
:0610A800AB56AA57A9583F
:1010AE008B7C8A7D897E900003120187AE02AF0190
:1010BE00AB7CAA7DA97E120118C3EF99FFEE9AFEB2
:0110CE0022FF
:0F100400756A00756B00756C5EAB56AA57A958DC
:101013008B678A6889691210AEEF4E7003FEFF2258
:10102300AB67AA68A96990000374FFF5F01201E9A0
:1010330012000EAB6AAA6BA96C1200547E007F01EA
:01104300228A
:0607B2008B568A5789589E
:1007B800E4F55CF55D120E27AB59AA5AA95B855D75
:1007C80082855C83120027700302090BAB59AA5A71
:1007D800A95B855D82855C83120027FF1211855015
:1007E80043AB59AA5AA95B055DE55DAE5C7002058D
:1007F8005C14F5828E83120027F50B7BFF7A0E7945
:10080800F21204B8AB59AA5AA95B855D82855C834C
:10081800120027FF12118540B37BFF7A0E79F5127B
:1008280004B880A8AB59AA5AA95B855D82855C8308
:10083800120027FF642B6005EF642D70381210A892
:10084800EF4E70030208CB121004E55EB4280CAB1F
:1008580056AA57A958FD120B09800C7BFF7A0E790E
:10086800F7855E0B1204B81210A8EF4E6005E55E1E
:10087800B428D4804EAB59AA5AA95B855D82855CA1
:10088800831200276429701EF56A8015E55E6428C6
:1008980060667BFF7A0E79F7855E0B1204B8756A7D
:1008A8000012100780E6AB59AA5AA95B855D8285BC
:1008B8005C83120027FF642A6009EF642F6004EF4D
:1008C800B4281BAB59AA5AA95B855D82855C831243
:1008D8000027FDAB56AA57A958120B09801AAB5925
:1008E800AA5AA95B855D82855C8312002760147B08
:1008F800FF7A0E79FB0204B8055DE55D7002055CC0
:100908000207C01210A8EF4E60111210047BFF7A84
:0B0918000E79F7855E0B1204B880E832
:0109230022B1
:03000000020D23CB
:0C0D2300787FE4F6D8FD75817E020D6A31
:10000E00BB010689828A83E0225002E722BBFE02F0
:09001E00E32289828A83E4932223
:10002700BB010CE58229F582E5833AF583E022508E
:1000370006E92582F8E622BBFE06E92582F8E222D8
:0D004700E58229F582E5833AF583E49322F2
:10005400BB010689828A83F0225002F722BBFE018B
:02006400F32285
:10006600BB0110E58229F582E5833AF583E0F5F0D8
:10007600A3E0225009E92582F886F008E622BBFEB5
:100086000AE92582F8E2F5F008E222E5832AF583FB
:08009600E993F5F0A3E99322C0
:10009E00BB010DC58229C582C5833AC58302036A99
:1000AE005011C58229F808E5F026F618F5F0E5821C
:1000BE0036F622BBFE11C58229F808E225F0F5F0CE
:1000CE00F218E23582F222F8E58229F582E5832ADA
:0D00DE00F58374019325F0F5F0E4933822CA
:1000EB00F8BB0111E58229F582E5833AF583E8F047
:1000FB00E5F0A3F0225009E92582C8F608A6F02204
:0D010B00BBFE09E92582C8F2E5F008F222EA
:10011800BB010789828A830203B25005E9F802030A
:1001280080BBFE05E9F80203F289828A830204246F
:10013800BB011A89828A83D0F0D0E0F8D0E0F9D0E8
:10014800E0FAD0E0FBE8C0E0C0F00203E95016E9AD
:10015800F8D083D082D0E0F9D0E0FAD0E0FBC082BA
:10016800C0830203A9BBFE16E9F8D083D082D0E091
:0F017800F9D0E0FAD0E0FBC082C08302041B2262
:10018700BB010DE58229F582E5833AF5830203B2C7
:100197005007E92582F8020380BBFE07E92582F8AC
:1001A7000203F2E58229F582E5833AF58302042406
:1001B700BB010DC58229C582C5833AC5830203BB2E
:1001C7005008F8E92582C8020389BBFE08F8E9252B
:1001D70082C80203FBC58229C582C5833AC583024B
:0201E7000424EE
:1001E900BB010DC58229C582C5833AC5830203D2E5
:1001F9005008F8E92582C8020399BBFE08F8E925E9
:1002090082C802040BC58229C582C5833AC5830207
:020219000424BB
:10021B00BB0120E58229F582E5833AF583D0F0D046
:10022B00E0F8D0E0F9D0E0FAD0E0FBE8C0E0C0F0B5
:10023B000203E95018E92582F8D083D082D0E0F987
:10024B00D0E0FAD0E0FBC082C0830203A9BBFE184A
:10025B00E92582F8D083D082D0E0F9D0E0FAD0E063
:09026B00FBC082C08302041B22C7
:10045600E517240BF8E60517227808300702780B13
:10046600E475F00112038902000E2000EB7F2ED204
:10047600008018EF540F2490D43440D4FF30040B7E
:10048600EF24BFB41A0050032461FFE5186002157B
:1004960018051BE51B7002051A30070D7808E47570
:1004A600F001120389EF0200540210CF7403D20741
:1004B6008003E4C207F5178B088A09890AE4F51850
:1004C600F51AF51BE51860077F2012049180F57573
:1004D60019FFC201C200C202C203C205C206C20897
:1004E60012045FFF700D3007057F001204A2AF1BD8
:1004F600AE1A22B4255FC2D5C20412045FFF24D00F
:10050600B40A00501A75F00A781830D50508B6FFF7
:100516000106C6A426F620D5047002D20380D9248B
:10052600CFB41A00EF5004C2E5D2040206A2D201EB
:1005360080C6D20080C0D20280BCD2D580BAD20595
:1005460080B47F201204912002077401B518004080
:10055600F1120456FF1204910204CAD208D2068090
:1005660095120456FB120456FA120456F94A4B70B9
:100576000679737A077BFF20022EE518602A7E0033
:100586008E8275830012002760060EEE651970F0E4
:10059600C2D5EBC0E0EAC0E0E9C0E0EE1206E9D061
:1005A600E0F9D0E0FAD0E0FB12000EFF60AAEBC043
:1005B600E0EAC0E0E9C0E0120491D0E02401F9D0FD
:1005C600E03400FAD0E0FBE5190460DCD519D980E7
:1005D600877BFF7A0679E5D202809C7910800279C2
:1005E60008C206C2088008D2D5790A8004790AC2F0
:1005F600D5E519047002F519E4FAFDFEFF1204565A
:10060600FC7B08200113120456FD7B1030000A12F1
:100616000456FE120456FF7B20EC3382D592D55049
:1006260013C3E43000069FFFE49EFEE42001039D11
:10063600FDE49CFCE4CBF8C201EC700CCFCECDCC33
:10064600E824F8F870F38017C3EF33FFEE33FEEDBE
:1006560033FDEC33FCEB33FB994002FB0FD8E9EB9F
:10066600300105F8D0E0C448B201C0E00AEC4D4EB6
:100676004F78207B0070C2EAB5190040BCC0E0127A
:1006860006EBD0F0D0E0200104C4C0E0C4B201C043
:10069600F012047AD0F0D5F0EB0204CA1204300549
:1006A600675305E15805384C05344205E54F05ED1D
:0F06B6004405ED49054D4305F35505D74605D7D6
:1006C5004505D747079350053C2D05402E05632B5F
:1006D500054423056120077C2A04FC480000055BCE
:1006E5003F3F3F00790AA2D5200314300509B91010
:1006F500020404B9080104A2D52006025001042011
:1007050002689202B518005034C0E07F203003190A
:100715007F30A20272067205500F120742C202C252
:1007250006C205C2087F30800F300503E9C0E0121C
:100735000491300503D0E0F9D0E0B518CC300517A9
:100745007F30B9100C1204917F583004077F7880F0
:1007550003B908031204913002057F2D0204917F2D
:10076500202008F87F2B2006F322920280CF286EE6
:10077500756C6C2900D2011204563001F8C201785B
:100785001830D50108F60204FC2D504349581204CF
:10079500562403B405004001E490078E93120482A9
:0D07A500743A120482D2037518040205E1B3
:0F118500EFC394304007EF943A50028001C32229
:100C87008E6D8F6E7E007F008F828E83E0FCA3E0E7
:100C9700FD4C7003FEFF228D828C83A3A3E0FAA391
:100CA700E0FBC3956EEA956D5008CEECCECFEDCF45
:100CB70080D6C3EB956EF570EA956DF56FC3E57059
:100CC7009410E56F940050198D828C83E0FBA3E0AC
:100CD7008F828E83CBF0A3EBF0ED2404FFE43CFE80
:100CE7002274FC2570F57074FF356FF56F8D828C5B
:100CF70083A3A3F0A3E570F0ED2404FFE43CFEEF2B
:100D07002570FFEE356FFE8F82F583A3A3E56DF0A7
:0C0D1700A3E56EF0EF2404FFE43EFE2292
:100DAF008E5F8F608C618D62E560455F600A900099
:100DBF0002E07002A3E07004E4FEFF22855F63850A
:100DCF006064E56424FCF564E56334FFF563AF62AA
:100DDF00AE61120C878E658F66EF4E7003FEFF2299
:100DEF00856482856383A3A3E0FEA3E0FFC39562BE
:100DFF00EE956150048E618F62AE61AF62AA5FA9FA
:100E0F00607B01A866AC657D01120344AF60AE5FE5
:080E1F00120924AE65AF662242
:100D2F00021115E493A3F8E493A34003F68001F2B4
:100D3F0008DFF48029E493A3F85407240CC8C333C5
:100D4F00C4540F4420C8834004F456800146F6DF94
:100D5F00E4800B0102040810204080900F79E47E9C
:100D6F00019360BCA3FF543F30E509541FFEE49389
:100D7F00A360010ECF54C025E060A840B8E493A350
:100D8F00FAE493A3F8E493A3C8C582C8CAC583CA7B
:100D9F00F0A3C8C582C8CAC583CADFE9DEE780BE33
:010FB7000039
:10027400E709F608DFFA8046E709F208DFFA803E6C
:1002840088828C83E709F0A3DFFA8032E309F60859
:10029400DFFA8078E309F208DFFA807088828C83C1
:1002A400E309F0A3DFFA806489828A83E0A3F60875
:1002B400DFFA805889828A83E0A3F208DFFA804C4F
:1002C40080D280FA80C680D4806980F28033801026
:1002D40080A680EA809A80A880DA80E280CA80338F
:1002E40089828A83ECFAE493A3C8C582C8CCC58307
:1002F400CCF0A3C8C582C8CCC583CCDFE9DEE780D7
:100304000D89828A83E493A3F608DFF9ECFAA9F055
:10031400EDFB2289828A83ECFAE0A3C8C582C8CCAB
:10032400C583CCF0A3C8C582C8CCC583CCDFEADEC4
:10033400E880DB89828A83E493A3F208DFF980CC26
:1003440088F0EF60010E4E60C388F0ED2402B4041F
:100354000050B9F582EB2402B4040050AF232345C6
:0603640082239002C47325
:10036A00C5F0F8A3E028F0C5F0F8E582158270021E
:06037A001583E038F022BB
:09038000E6FB08E6FA08E6F922A2
:10038900FAE6FB0808E6F925F0F618E6CA3AF62275
:10039900FAE6FB0808E625F0F9F618E63AFAF62235
:0903A900EBF608EAF608E9F62279
:0903B200E0FBA3E0FAA3E0F9224C
:1003BB00F8E0FBA3A3E0F925F0F0E58215827002CB
:0703CB001583E0FA38F0226F
:1003D200F8E0FBA3A3E025F0F9F0E58215827002B4
:0703E2001583E038FAF02258
:0903E900EBF0A3EAF0A3E9F02215
:0903F200E2FB08E2FA08E2F9223C
:1003FB00FAE2FB0808E2F925F0F218E2CA3AF22217
:10040B00FAE2FB0808E225F0F9F218E23AFAF222D6
:09041B00EBF208EAF208E9F22212
:0C042400E493FB740193FA740293F92234
:10043000D083D082F8E4937012740193700DA3A35B
:1004400093F8740193F5828883E47374029368606F
:06045000EFA3A3A380DF6F
:1010CF00EFB40A07740D1210DA740A309811A89948
:1010DF00B8130CC2983098FDA899C298B811F63081
:0710EF0099FDC299F5992259
:0B0FB8004800000000000000000000E6
:10104400EF4E7008FE7F01ED1D70011C900000EE54
:10105400F0A3EFF0A3ECF0A3EDF0900000E0FEA30A
:10106400E0FFF5828E83E4F0A3F0ED24FCFDEC3484
:0C107400FF8F828E83A3A3F0A3EDF02277
:10092400EF4E7003020A27900002E07002A3E07009
:1009340003020A27CDEFCDCCEECCED24FCFDEC3444
:10094400FFFC757100757200857282857183E0FA0F
:10095400A3E08A73F57445736011D3E5749FE5735E
:100964009E500885737185747280DDE574457360EB
:100974004A8D828C83A3A3E0FAA3E02FFFEA3EFE14
:10098400EF65747003EE65737031857482857383CB
:10099400A3A3E0FEA3E02404FFE43E8D828C83A3A2
:1009A400A38FF012036A857482857383E0FFA3E04A
:1009B4008D828C83CFF0A3EFF0800B8D828C83E546
:1009C40073F0A3E574F0857282857183A3A3E0FEBE
:1009D400A3E02572FFEE3571FEEF2404FFE43EFE32
:1009E400EF6D7002EE6C70308D828C83A3A3E0FEF9
:1009F400A3E02404FFE43E857282857183A3A38F60
:100A0400F012036A8D828C83E0FFA3E085728285F5
:100A14007183CFF0A3EFF022857282857183ECF0AD
:040A2400A3EDF0222C
:00000001FF
